:100000004DC071C070C06FC06EC06DC06CC06BC0A1
:100010006AC069C068C067C066C065C00EC363C0FF
:1000200062C061C0B8C25FC000002D00240027007C
:100030002A0000002E00250028002B0000000000F0
:1000400000000000000304000000000000000000A9
:10005000000000000000000000002C00230026002B
:10006000290004040404040404040202020202023B
:10007000020203030303030303010101010301025D
:1000800004081020408001020408102040808001F4
:10009000020408102001020408408C0711241FBE2E
:1000A000CFEFD2E0DEBFCDBF22E0ACEBB1E001C0CC
:1000B0001D92A432B207E1F711E0A0E0B1E0E0E167
:1000C000F0E102C005900D92AC3BB107D9F710E00A
:1000D000CEE4D0E003C02197FE0192D7CD34D10702
:1000E000D1F7F5D293C78CCFE2E1F2E082E0818BC9
:1000F00080B7877F80BF80B7806480BF80B78F77ED
:1001000080BF80B78B7F80BF80B7826080BF80B7A1
:10011000816080BF8AB12485922F909598239AB9E7
:100120008BB1822B8BB99AB12585922B9AB98BB161
:10013000822B8BB980B7806180BF80B7886080BF19
:10014000089508952FB7F894FC01458556853AE047
:100150006095089420F47BB175237BB904C07BB112
:10016000742B7BB9000063D262D261D260D26695F3
:100170003A9581F72FBF81E090E00895682F82E1E2
:1001800092E0E0CFCF93DF938DE0F8DFEC018AE0DF
:10019000F5DF8C0F9D1FDF91CF910895DC011F9635
:1001A000ED91FC9120A131A182A193A128173907DB
:1001B00079F0A2A1B3A1AE0FBF1F8C9122A133A1F0
:1001C0002F5F3F4F2F71332733A322A390E0089571
:1001D0008FEF9FEF0895DC011F96ED91FC9120A118
:1001E00031A182A193A12817390739F082A193A1E7
:1001F000E80FF91F808190E008958FEF9FEF089539
:10020000DC011F96ED91FC9180A191A122A133A167
:10021000821B930B8F7199270895CF92DF92EF92F3
:10022000FF920F931F93CF93DF936C01EB017B0140
:10023000E40EF51E10E000E0CE15DF0561F06991D7
:10024000D601ED91FC910190F081E02DC601099558
:10025000080F191FF1CFC801DF91CF911F910F91A6
:10026000FF90EF90DF90CF9008953FB7F894809182
:10027000BD019091BE01A091BF01B091C00126B512
:10028000A89B05C02F3F19F00196A11DB11D3FBFCE
:10029000BA2FA92F982F8827BC01CD01620F711D9D
:1002A000811D911D43E0660F771F881F991F4A9596
:1002B000D1F70895CF92DF92EF92FF92CF93DF9321
:1002C0006B017C01D2DFEB01C114D104E104F10424
:1002D00041F412C081E0C81AD108E108F108C85100
:1002E000DC4FC3DF6C1B7D0B683E734068F3C114A9
:1002F000D104E104F10471F7DF91CF91FF90EF9009
:10030000DF90CF900895CF92DF92EF92FF926A0133
:100310007B01805C80937C0062E070E080E090E094
:10032000C9DF80917A00806480937A0080917A009E
:1003300086FDFCCF8091780060917900762F682F40
:10034000072E000C880B990BA70196011ED62AE0F8
:1003500096958795779567952A95D1F7FF90EF90B9
:10036000DF90CF900895FC0101900020E9F73197CC
:10037000AF01481B590BBC0182E192E04ECFCF93F5
:10038000DF93F1DFEC01FEDE8C0F9D1FDF91CF913B
:100390000895AADEF7DE86E191E0F1CF8F929F9279
:1003A000AF92BF92EF92FF920F931F93CF93DF9381
:1003B000CDB7DEB7A1970FB6F894DEBF0FBECDBFA5
:1003C000162F042F19A2423008F40AE07E0121E220
:1003D000E20EF11C802E912CB12CA12C612FA501D5
:1003E0009401ECD5802F622FC7D5181B1A30F4F476
:1003F000105DF70112937F01122F732FCA01232B77
:10040000242B252B59F7CF01AEDFA1960FB6F89418
:10041000DEBF0FBECDBFDF91CF911F910F91FF9037
:10042000EF90BF90AF909F908F900895195CE1CFAF
:10043000CF92DF92EF92FF92CF93DF936C01990FEF
:10044000EE08FF08D0E0C0E0F7FE0BC08DE296DEBC
:10045000EC01F094E094D094C094C11CD11CE11C38
:10046000F11C4AE0C701B60199DF8C0F9D1FDF9197
:10047000CF91FF90EF90DF90CF90089590E0FC0136
:10048000E258FF4F2491FC01EE59FF4FE491EE2317
:1004900071F0F0E0EE0FFF1FE85AFF4FA591B49105
:1004A000EC91E22381E090E021F480E0089580E087
:1004B00090E0089590E0FC01E45CFF4F3491FC0172
:1004C000E258FF4F2491FC01EE59FF4FE491EE23D7
:1004D000D1F0332339F03330B9F4809180008F7735
:1004E00080938000F0E0EE0FFF1FEE5CFF4FA591C0
:1004F000B4918FB761110EC0F8949C91E22FE095F2
:10050000E923EC938FBF0895343061F78091800028
:100510008F7DE6CFF894EC91E22BF3CFCF93DF936E
:1005200090E0FC01E258FF4F24918E599F4FFC014F
:1005300084918823C9F090E0880F991FFC01E85D41
:10054000FF4FA591B491FC01EE5CFF4FC591D49192
:1005500061110DC09FB7F8948C91209582238C93E4
:100560008881282328839FBFDF91CF91089562302F
:1005700051F49FB7F8943C91822F809583238C93FC
:10058000E8812E2BEFCF8FB7F894EC912E2B2C9384
:100590008FBFEACFDDC41F920F920FB60F921124C6
:1005A0002F933F934F935F937F938F939F93AF933B
:1005B000BF93EF93FF9340911E0220E038E037D0C5
:1005C00036D035D034D033D0889479B1742309F043
:1005D000089427953A9509F0F3CF29D028D0E091D7
:1005E0002102F091220280A191A101968F71992799
:1005F00042A153A18417950739F0A0A1B1A1AE0F74
:10060000BF1F2C9391A380A380B7806180BFFF910F
:10061000EF91BF91AF919F918F917F915F914F919A
:100620003F912F910F900FBE0F901F9018958091C2
:100630002302982F9A95F1F708951F920F920FB603
:100640000F9211242F933F938F939F93AF93BF9358
:100650008091E5019091E601A091E701B091E80158
:100660003091BC0126E0230F2D3768F129E8230FD4
:100670000396A11DB11D2093BC018093E5019093C9
:10068000E601A093E701B093E8018091BD0190914C
:10069000BE01A091BF01B091C0010196A11DB11D85
:1006A0008093BD019093BE01A093BF01B093C001A0
:1006B000BF91AF919F918F913F912F910F900FBE5E
:1006C0000F901F9018950296A11DB11DD4CFCF9306
:1006D000DF93CDB7DEB728970FB6F894DEBF0FBE15
:1006E000CDBF93E095BD789480916E00816080933A
:1006F0006E0081E0809380009093810086E8809373
:100700007A0061E080E00ADF61E085E007DF61E018
:1007100084E004DF61E08FE001DF60E080E1FEDE85
:1007200061E089E1FBDE60E080E0C4DE61E085E05D
:10073000C1DE61E084E0BEDE61E08FE0BBDE60E050
:1007400089E1B8DE62E081E0E9DE60E082E0E6DED9
:1007500060E083E0E3DE61E08EE0E0DE60E08EE01A
:10076000A9DE83E08BDE892B89F48AEF90E012DF2B
:1007700081110CC06FEF8AEF90E0F1D360E084E06C
:1007800099DE68EE73E080E090E094DD83E076DE51
:10079000892B89F48AEF90E0FDDE8F3F61F460E001
:1007A0008AEF90E0DCD360E08FE084DE68EE73E0F7
:1007B00080E090E07FDD8AEF90E0ECDE90E09093C7
:1007C000EF018093EE01009709F0C5C186E491E046
:1007D000909301018093000160E08FE06BDE68EE92
:1007E00073E080E090E066DD7FDC6AEF70E080E03F
:1007F00090E060DDC7DC8FE491E0B5DD88E691E054
:10080000B2DD8DE691E0AFDD84E690E0C3DE8131BC
:1008100018F490E080E00CDE84E690E0BBDE682F08
:1008200070E090E080E040E1B9DD88EC90E0B2DE7D
:10083000813118F490E080E0FBDD88EC90E0AADEE6
:10084000682F70E090E080E040E1A8DD86E791E06D
:100850008ADD809100019091010191DD68EE73E0E5
:1008600080E090E027DD95DD80917A0080688093BC
:100870007A0084E9282E81E0382E2FB7F8948091F1
:10088000E5019091E601A091E701B091E8012FBF49
:1008900080930E0290930F02A0931002B093110266
:1008A000883E9340A105B105C9F52FB7F894809112
:1008B000E5019091E601A091E701B091E8012FBF19
:1008C00080930A0290930B02A0930C02B0930D0246
:1008D0002FB7F8948091E5019091E601A091E7018E
:1008E000B091E8012FBF8093060290930702A09376
:1008F0000802B09309022FB7F8948091E501909116
:10090000E601A091E701B091E8012FBF80930202B8
:1009100090930302A0930402B0930502C0900E02CC
:10092000D0900F02E0901002F090110280910A0224
:1009300090910B02A0910C02B0910D02C816D9063D
:10094000EA06FB0608F499CF81E098DD982E8093A3
:10095000010283E093DD8C019093F4018093F30115
:1009600082E08CDD9A8389839093F6018093F50170
:1009700049EE5CE060E070E087E090E0C4DC2B01D1
:100980005B017093F8016093F70149EE5CE060E071
:1009900070E090E080E0B7DC7093FA016093F901B9
:1009A0004CEC50E160E070E081E090E0ACDC7093F2
:1009B000FC016093FB0142ED59E160E070E082E0F0
:1009C00090E0A1DC78876F837093FE016093FD0156
:1009D00042ED59E160E070E083E090E094DC7C83DC
:1009E0006B83709300026093FF0149EB51E060E07C
:1009F00070E086E090E087DC7E836D837093020276
:100A00006093010281E6481689E0580678F060E0BC
:100A100084E0992029F0F1E09F1208C060E08FE0A7
:100A200049DD64E170E080E090E044DCC201895976
:100A30009840873C910540F460E08FE03BDD64E145
:100A400070E080E090E036DC9DED491A95E0590AAF
:100A5000EBEB4E16E2E05E0608F08AC060E08FE045
:100A600029DD60E085E026DD64E170E080E090E073
:100A700021DC8091060290910702A0910802B091BA
:100A80000902C816D906EA06FB06B0F080E1F6DCDA
:100A9000019709F08FC081E08093F001D701C60172
:100AA0008053984FAF4FBF4F809306029093070239
:100AB000A0930802B093090291E6A91699E0B9063D
:100AC00008F47BC0EF81F885E938F34108F475C07C
:100AD00081E0981216C28091EE019091EF018F3F54
:100AE000910509F0E7C161E085E0E4DC60E084E0C5
:100AF000E1DC61E08FE0DEDC6AEF70E080E090E056
:100B0000D9DB61E089E1D6DC60E080E0D3DC909263
:100B1000F1011092ED0130920501209204018091C3
:100B2000EC01813009F094C18091F201811190C1F2
:100B300060E089E1BFDC60E08EE0BCDC1092EC019B
:100B40001092F1011092F201ECE9F1E0F09305014D
:100B5000E09304017DC18F3F910509F045CE8AE401
:100B600091E0909301018093000160E084E036CE33
:100B7000FCEDAF16F5E0BF0608F07BCF60E085E046
:100B800099DC64E170E080E090E094DB24E1A2165F
:100B900025E0B20608F06DCF60E089E18BDC1092B1
:100BA000F2011092F10187E891E0909305018093A2
:100BB00004015FCF1092F0017FCF911045C1809169
:100BC000ED018111A2C161E089E174DC61E08EE098
:100BD00071DC1092F2011092ED0181E08093F1013D
:100BE0008093EC0189E991E09093050180930401E1
:100BF000012B09F08AC18091EE019091EF01892BC0
:100C000009F083C160E085E055DC61E084E052DCFE
:100C100061E08FE04FDC64EF71E080E090E04ADB60
:100C200061E080E047DC60E08EE044DC81E08093BE
:100C3000F2018093ED0180EA91E0909305018093A9
:100C40000401EF81F885E838F34178F461E080E051
:100C500031DC60E08EE02EDC81E08093F20180EAFE
:100C600091E090930501809304018091EC01811142
:100C700026C08B819C818938934108F18F819885AA
:100C800089389341E0F08091EB01811118C061E057
:100C90008EE010DC3092050120920401D701C601DC
:100CA00088519C4FAF4FBF4F809302029093030235
:100CB000A0930402B093050281E08093EB01809140
:100CC000EB018130B9F489EA91E0909303018093BC
:100CD0000201D701C60188519C4FAF4FBF4F80938F
:100CE000020290930302A0930402B093050282E0F3
:100CF0008093EB018091020290910302A091040283
:100D0000B0910502C816D906EA06FB06A0F080914C
:100D1000EB01823081F4ED81FE813A9760F460E06E
:100D20008EE0C8DB82EB91E0909303018093020197
:100D300083E08093EB01EF81F885E838F34110F40C
:100D40001092EB01D1D98091E9019091EA010196CD
:100D50009093EA018093E9010B9738F01ADB81E068
:100D600090E09093EA018093E90103EF11E01A8289
:100D7000198289819A81079709F094C080910102B4
:100D8000909102028130984008F48CC090E080E09D
:100D90004FDB89E0F3D989819A8101969A8389830F
:100DA0000E5F1F4F089729F76091F20170E090E005
:100DB00080E04AE0F3DA89E0E1D96091F10170E086
:100DC00090E080E04AE0EADA89E0D8D981E056DBB9
:100DD0002FDB89E0D3D96091F00170E090E080E0F2
:100DE0004AE0DCDA89E0CAD98091040190910501DA
:100DF000BADA80E2C3D98091020190910301BFDA8F
:100E0000E5E4F1E0F0930301E093020161E085E0A5
:100E100051DB61E084E04EDB61E08FE04BDB8091F1
:100E20000E0290910F02A0911002B0911102885110
:100E30009C4FAF4FBF4F80930A0290930B02A09339
:100E40000C02B0930D0219CD91E0991609F467CE0A
:100E5000012B01F58091ED0181111CC0992009F44D
:100E6000CACE81E0981201CF8091F201813009F061
:100E7000FCCE60E089E11EDB60E080E01BDB1092CD
:100E8000F2011092F101ECE9F1E0F0930501E09339
:100E90000401EBCEEF81F885E838F34110F79110AB
:100EA000E0CFD4CEF8016081718190E080E04AE02B
:100EB00075DA6FCF892B09F032CE0115110549F093
:100EC000E981FA81EF2B29F08091F001813009F05E
:100ED00026CE61E085E0EEDA60E084E0EBDA61E006
:100EE0008FE0E8DA6AEF70E080E090E0E3D961E05B
:100EF00089E1E0DA60E080E0DDDA81E08093F10111
:100F000008CE992009F45BCEA3CF8F8198858838CD
:100F1000934108F0AACE9ACEE2E1F2E01382128267
:100F200088EE93E0A0E0B0E084839583A683B78346
:100F30008AE091E09183808381EC91E0908B8787B8
:100F400080E8848780E485878FEB8687118A0895FF
:100F5000F999FECF81BDF89A992780B50895262F7B
:100F6000F999FECF1FBA81BD20BD0FB6F894FA9A49
:100F7000F99A0FBE01960895002480FD060E660FB3
:100F800011F08695D1F7802D0895EE27FF27AA2727
:100F9000BB2708C0A20FB31FE41FF51F220F331F8A
:100FA000441F551F969587957795679598F37040E0
:100FB000A9F7009799F7BD01CF010895A1E21A2E74
:100FC000AA1BBB1BFD010DC0AA1FBB1FEE1FFF1FED
:100FD000A217B307E407F50720F0A21BB30BE40B3D
:100FE000F50B661F771F881F991F1A9469F7609584
:100FF0007095809590959B01AC01BD01CF0108953E
:10100000EE0FFF1F0590F491E02D0994F894FFCFA7
:1010100045014501450100000000A2000D0100014D
:10102000CE00EB00A100503209494E540953430948
:10103000315638093356330935564509355649096D
:10104000426B6C0947530945355609434D500944D5
:101050004909434D33004D414E004155544F004125
:10106000434D452053797374656D73202D20466977
:10107000726D776172653A0031322E390020436813
:10108000697049443A00204F7065726174696E67F7
:10109000204D6F64653A004C6F7720537570657210
:1010A00063617000426F6F74004F4B004F666600C3
:1010B00053687574646F776E00446973702E204FA7
:0C10C0004E00446973702E204F4646001D
:00000001FF
