:100000004DC071C070C06FC06EC06DC06CC06BC0A1
:100010006AC069C068C067C066C065C00EC363C0FF
:1000200062C061C0B8C25FC000002D00240027007C
:100030002A0000002E00250028002B0000000000F0
:1000400000000000000304000000000000000000A9
:10005000000000000000000000002C00230026002B
:10006000290004040404040404040202020202023B
:10007000020203030303030303010101010301025D
:1000800004081020408001020408102040808001F4
:10009000020408102001020408408B0711241FBE2F
:1000A000CFEFD2E0DEBFCDBF22E0AEEBB1E001C0CA
:1000B0001D92A632B207E1F711E0A0E0B1E0EEE058
:1000C000F0E102C005900D92AE3BB107D9F710E008
:1000D000CEE4D0E003C02197FE0191D7CD34D10703
:1000E000D1F7F5D292C78CCFE4E1F2E082E0818BC8
:1000F00080B7877F80BF80B7806480BF80B78F77ED
:1001000080BF80B78B7F80BF80B7826080BF80B7A1
:10011000816080BF8AB12485922F909598239AB9E7
:100120008BB1822B8BB99AB12585922B9AB98BB161
:10013000822B8BB980B7806180BF80B7886080BF19
:10014000089508952FB7F894FC01458556853AE047
:100150006095089420F47BB175237BB904C07BB112
:10016000742B7BB9000063D262D261D260D26695F3
:100170003A9581F72FBF81E090E00895682F84E1E0
:1001800092E0E0CFCF93DF938DE0F8DFEC018AE0DF
:10019000F5DF8C0F9D1FDF91CF910895DC011F9635
:1001A000ED91FC9120A131A182A193A128173907DB
:1001B00079F0A2A1B3A1AE0FBF1F8C9122A133A1F0
:1001C0002F5F3F4F2F71332733A322A390E0089571
:1001D0008FEF9FEF0895DC011F96ED91FC9120A118
:1001E00031A182A193A12817390739F082A193A1E7
:1001F000E80FF91F808190E008958FEF9FEF089539
:10020000DC011F96ED91FC9180A191A122A133A167
:10021000821B930B8F7199270895CF92DF92EF92F3
:10022000FF920F931F93CF93DF936C01EB017B0140
:10023000E40EF51E10E000E0CE15DF0561F06991D7
:10024000D601ED91FC910190F081E02DC601099558
:10025000080F191FF1CFC801DF91CF911F910F91A6
:10026000FF90EF90DF90CF9008953FB7F894809182
:10027000BF019091C001A091C101B091C20126B50A
:10028000A89B05C02F3F19F00196A11DB11D3FBFCE
:10029000BA2FA92F982F8827BC01CD01620F711D9D
:1002A000811D911D43E0660F771F881F991F4A9596
:1002B000D1F70895CF92DF92EF92FF92CF93DF9321
:1002C0006B017C01D2DFEB01C114D104E104F10424
:1002D00041F412C081E0C81AD108E108F108C85100
:1002E000DC4FC3DF6C1B7D0B683E734068F3C114A9
:1002F000D104E104F10471F7DF91CF91FF90EF9009
:10030000DF90CF900895CF92DF92EF92FF926A0133
:100310007B01805C80937C0062E070E080E090E094
:10032000C9DF80917A00806480937A0080917A009E
:1003300086FDFCCF8091780060917900762F682F40
:10034000072E000C880B990BA70196011DD62AE0F9
:1003500096958795779567952A95D1F7FF90EF90B9
:10036000DF90CF900895FC0101900020E9F73197CC
:10037000AF01481B590BBC0184E192E04ECFCF93F3
:10038000DF93F1DFEC01FEDE8C0F9D1FDF91CF913B
:100390000895AADEF7DE86E191E0F1CF8F929F9279
:1003A000AF92BF92EF92FF920F931F93CF93DF9381
:1003B000CDB7DEB7A1970FB6F894DEBF0FBECDBFA5
:1003C000162F042F19A2423008F40AE07E0121E220
:1003D000E20EF11C802E912CB12CA12C612FA501D5
:1003E0009401EBD5802F622FC6D5181B1A30F4F478
:1003F000105DF70112937F01122F732FCA01232B77
:10040000242B252B59F7CF01AEDFA1960FB6F89418
:10041000DEBF0FBECDBFDF91CF911F910F91FF9037
:10042000EF90BF90AF909F908F900895195CE1CFAF
:10043000CF92DF92EF92FF92CF93DF936C01990FEF
:10044000EE08FF08D0E0C0E0F7FE0BC08DE296DEBC
:10045000EC01F094E094D094C094C11CD11CE11C38
:10046000F11C4AE0C701B60199DF8C0F9D1FDF9197
:10047000CF91FF90EF90DF90CF90089590E0FC0136
:10048000E258FF4F2491FC01EE59FF4FE491EE2317
:1004900071F0F0E0EE0FFF1FE85AFF4FA591B49105
:1004A000EC91E22381E090E021F480E0089580E087
:1004B00090E0089590E0FC01E45CFF4F3491FC0172
:1004C000E258FF4F2491FC01EE59FF4FE491EE23D7
:1004D000D1F0332339F03330B9F4809180008F7735
:1004E00080938000F0E0EE0FFF1FEE5CFF4FA591C0
:1004F000B4918FB761110EC0F8949C91E22FE095F2
:10050000E923EC938FBF0895343061F78091800028
:100510008F7DE6CFF894EC91E22BF3CFCF93DF936E
:1005200090E0FC01E258FF4F24918E599F4FFC014F
:1005300084918823C9F090E0880F991FFC01E85D41
:10054000FF4FA591B491FC01EE5CFF4FC591D49192
:1005500061110DC09FB7F8948C91209582238C93E4
:100560008881282328839FBFDF91CF91089562302F
:1005700051F49FB7F8943C91822F809583238C93FC
:10058000E8812E2BEFCF8FB7F894EC912E2B2C9384
:100590008FBFEACFDCC41F920F920FB60F921124C7
:1005A0002F933F934F935F937F938F939F93AF933B
:1005B000BF93EF93FF934091200220E038E037D0C3
:1005C00036D035D034D033D0889479B1742309F043
:1005D000089427953A9509F0F3CF29D028D0E091D7
:1005E0002302F091240280A191A101968F71992795
:1005F00042A153A18417950739F0A0A1B1A1AE0F74
:10060000BF1F2C9391A380A380B7806180BFFF910F
:10061000EF91BF91AF919F918F917F915F914F919A
:100620003F912F910F900FBE0F901F9018958091C2
:100630002502982F9A95F1F708951F920F920FB601
:100640000F9211242F933F938F939F93AF93BF9358
:100650008091E7019091E801A091E901B091EA0150
:100660003091BE0126E0230F2D3768F129E8230FD2
:100670000396A11DB11D2093BE018093E7019093C5
:10068000E801A093E901B093EA018091BF01909144
:10069000C001A091C101B091C2010196A11DB11D7F
:1006A0008093BF019093C001A093C101B093C20198
:1006B000BF91AF919F918F913F912F910F900FBE5E
:1006C0000F901F9018950296A11DB11DD4CFCF9306
:1006D000DF93CDB7DEB728970FB6F894DEBF0FBE15
:1006E000CDBF93E095BD789480916E00816080933A
:1006F0006E0081E0809380009093810086E8809373
:100700007A0061E080E00ADF61E085E007DF61E018
:1007100084E004DF61E08FE001DF60E080E1FEDE85
:1007200061E089E1FBDE60E080E0C4DE61E085E05D
:10073000C1DE61E084E0BEDE61E08FE0BBDE60E050
:1007400089E1B8DE62E081E0E9DE60E082E0E6DED9
:1007500060E083E0E3DE61E08EE0E0DE60E08EE01A
:10076000A9DE8CE390E016DF282F30E03A8329835E
:100770003093F1012093F00183E080DE892B89F42E
:1007800089819A81892B09F0D8C16FEF8CE390E0C1
:10079000E5D360E084E08EDE68EE73E080E090E018
:1007A00089DD8091F0019091F101009709F0CCC1B1
:1007B00086E491E0909301018093000160E08FE076
:1007C00079DE68EE73E080E090E074DD8DDC6AEF46
:1007D00070E080E090E06EDDD5DC8FE491E0C3DD79
:1007E00088E691E0C0DD8EE691E0BDDD82E390E039
:1007F000D1DE813118F490E080E01ADE82E390E0EF
:10080000C9DE682F70E090E080E040E1C7DD83E35F
:1008100090E0C0DE813118F490E080E009DE83E3EF
:1008200090E0B8DE682F70E090E080E040E1B6DD57
:1008300087E791E098DD80910001909101019FDDB3
:1008400068EE73E080E090E035DDA3DD80917A0012
:10085000806880937A0085E9282E81E0382E2FB7B2
:10086000F8948091E7019091E801A091E901B0919D
:10087000EA012FBF8093100290931102A0931202FD
:10088000B0931302883E9340A105B105C9F52FB777
:10089000F8948091E7019091E801A091E901B0916D
:1008A000EA012FBF80930C0290930D02A0930E02D9
:1008B000B0930F022FB7F8948091E7019091E8016F
:1008C000A091E901B091EA012FBF809308029093B3
:1008D0000902A0930A02B0930B022FB7F8948091FB
:1008E000E7019091E801A091E901B091EA012FBFE1
:1008F0008093040290930502A0930602B09307022E
:10090000C0901002D0901102E0901202F0901302F9
:1009100080910C0290910D02A0910E02B0910F02F5
:10092000C816D906EA06FB0608F499CF81E0A6DDD1
:10093000982E8093030283E0A1DD8C019093F60151
:100940008093F50182E09ADD9A8389839093F80180
:100950008093F70149EE5CE060E070E087E090E0B2
:10096000D2DC2B015B017093FA016093F90149EE2F
:100970005CE060E070E090E080E0C5DC7093FC013A
:100980006093FB014CEC50E160E070E081E090E0AE
:10099000BADC7093FE016093FD0142ED59E160E025
:1009A00070E082E090E0AFDC78876F8370930002A4
:1009B0006093FF0142ED59E160E070E083E090E078
:1009C000A2DC7C836B83709302026093010249EB8B
:1009D00051E060E070E086E090E095DC7E836D831E
:1009E0007093040260930302F1E64F16F9E05F068C
:1009F00078F060E084E0992029F091E0991208C035
:100A000060E08FE057DD64E170E080E090E052DC70
:100A1000C20189599840873C910540F460E08FE01D
:100A200049DD64E170E080E090E044DC2DED421AA5
:100A300025E0520A3BEB431632E0530608F091C022
:100A400060E08FE037DD60E085E034DD64E170E098
:100A500080E090E02FDC8091080290910902A09143
:100A60000A02B0910B02C816D906EA06FB06B0F0DE
:100A700080E104DD019709F096C081E08093F201E6
:100A8000D701C6018053984FAF4FBF4F80930802E4
:100A900090930902A0930A02B0930B02F1E6AF16FD
:100AA000F9E0BF0608F482C02F8138852938334128
:100AB00008F47CC091E0991223C28091F0019091DA
:100AC000F1018F3F910509F0EDC161E085E0F2DCB5
:100AD00060E084E0EFDC61E08FE0ECDC6AEF70E086
:100AE00080E090E0E7DB61E089E1E4DC60E080E069
:100AF000E1DC9092F3011092EF0130920501209217
:100B000004018091EE01813009F09EC18091F401D1
:100B100081119AC160E089E1CDDC60E08EE0CADC41
:100B20001092EE011092F3011092F4018DE991E020
:100B3000909305018093040187C160E08CE390E00D
:100B40000DD260E08FE027CE8F3F910509F03ECEB9
:100B50008AE491E0909301018093000160E084E0D9
:100B60002FCE8CEDA81685E0B80608F074CF60E0B3
:100B700085E0A0DC64E170E080E090E09BDB94E144
:100B8000A91695E0B90608F066CF60E089E192DC2D
:100B90001092F4011092F301E8E8F1E0F0930501FE
:100BA000E093040158CF1092F20178CF911048C120
:100BB0008091EF018111A8C161E089E17BDC61E0F6
:100BC0008EE078DC1092F4011092EF0181E08093C6
:100BD000F3018093EE012AE931E03093050120937F
:100BE0000401012B09F090C18091F0019091F10175
:100BF000892B09F07EC160E085E05CDC61E084E087
:100C000059DC61E08FE056DC64EF71E080E090E059
:100C100051DB61E080E04EDC60E08EE04BDC81E0A7
:100C20008093F4018093EF01E1EAF1E0F093050194
:100C3000E09304012F8138852838334178F461E04E
:100C400080E038DC60E08EE035DC81E08093F40108
:100C5000E1EAF1E0F0930501E09304018091EE01F7
:100C6000811126C02B813C812938334108F1EF8165
:100C7000F885E938F341E0F08091ED01811118C069
:100C800061E08EE017DC3092050120920401D7016B
:100C9000C60188519C4FAF4FBF4F80930402909381
:100CA0000502A0930602B093070281E08093ED0154
:100CB0008091ED018130B9F48AEA91E090930301CB
:100CC00080930201D701C60188519C4FAF4FBF4F9F
:100CD0008093040290930502A0930602B09307024A
:100CE00082E08093ED018091040290910502A09131
:100CF0000602B0910702C816D906EA06FB06A0F064
:100D00008091ED01823081F4ED81FE813A9760F4AB
:100D100060E08EE0CFDB23EB31E0309303012093E2
:100D2000020183E08093ED018F819885883893419B
:100D300010F41092ED01D8D98091EB019091EC0163
:100D400001969093EC018093EB010B9738F021DB37
:100D500081E090E09093EC018093EB0105EF11E0CE
:100D60001A82198229813A812730310509F092C00F
:100D700080910302909104028130984008F48AC067
:100D800090E080E055DB89E0F9D929813A812F5F35
:100D90003F4F3A8329830E5F1F4F2830310511F7EB
:100DA0006091F40170E090E080E04AE0F7DA89E0D9
:100DB000E5D96091F30170E090E080E04AE0EEDA7E
:100DC00089E0DCD981E05ADB33DB89E0D7D9609157
:100DD000F20170E090E080E04AE0E0DA89E0CED90C
:100DE0008091040190910501BEDA80E2C7D980911B
:100DF000020190910301C3DA8DE691E09093030123
:100E00008093020161E085E055DB61E084E052DB24
:100E100061E08FE04FDB8091100290911102A09170
:100E20001202B091130288519C4FAF4FBF4F809375
:100E30000C0290930D02A0930E02B0930F020FCDFF
:100E400031E0931609F45DCE012BE1F48091EF01BE
:100E5000811118C0992009F4C7CE91E09912FECEF5
:100E60008091F401813009F0F9CE60E089E122DB64
:100E700060E080E01FDB1092F4011092F301EDE9D5
:100E8000F1E0E8CE2F8138852838334130F79110D2
:100E9000E4CFD5CEF8016081718190E080E04AE036
:100EA0007DDA71CF892B09F02CCE0115110549F09F
:100EB000E981FA81EF2B29F08091F201813009F06C
:100EC00020CE61E085E0F6DA60E084E0F3DA61E00C
:100ED0008FE0F0DA6AEF70E080E090E0EBD961E05B
:100EE00089E1E8DA60E080E0E5DA81E08093F3010F
:100EF00002CEEF81F885E838F34108F4A0CEAECEFB
:100F0000992009F455CEA0CF8F81988588389341D8
:100F100008F0A4CE94CEE4E1F2E01382128288EECF
:100F200093E0A0E0B0E084839583A683B7838AE052
:100F300091E09183808383EC91E0908B878780E8B8
:100F4000848780E485878FEB8687118A0895F999D5
:100F5000FECF81BDF89A992780B50895262FF9997B
:100F6000FECF1FBA81BD20BD0FB6F894FA9AF99A48
:100F70000FBE01960895002480FD060E660F11F045
:100F80008695D1F7802D0895EE27FF27AA27BB2746
:100F900008C0A20FB31FE41FF51F220F331F441F09
:100FA000551F969587957795679598F37040A9F7A3
:100FB000009799F7BD01CF010895A1E21A2EAA1B4F
:100FC000BB1BFD010DC0AA1FBB1FEE1FFF1FA217F9
:100FD000B307E407F50720F0A21BB30BE40BF50BF6
:100FE000661F771F881F991F1A9469F7609570957F
:100FF000809590959B01AC01BD01CF010895EE0F46
:0E100000FF1F0590F491E02D0994F894FFCFA6
:10100E006D016D016D0100000000A2000D010001D7
:10101E00CE00EB00A100503209494E54095343094A
:10102E00315638093356330935564509355649096F
:10103E00426B6C0947530945355609434D500944D7
:10104E004909434D33004D414E004155544F004127
:10105E00434D452053797374656D73202D20466979
:10106E00726D776172653A0031322E313100204354
:10107E0068697049443A00204F7065726174696EF8
:10108E0067204D6F64653A004C6F7720537570651D
:10109E007263617000426F6F74004F4B004F666653
:1010AE000053687574646F776E00446973702E20F8
:0E10BE004F4E00446973702E204F46460000CE
:00000001FF
